{
  "_format": "hh-sol-artifact-1",
  "contractName": "Ballot",
  "sourceName": "contracts/TokenizedBallot.sol",
  "abi": [
    {
      "inputs": [
        {
          "internalType": "bytes32[]",
          "name": "proposalNames",
          "type": "bytes32[]"
        },
        {
          "internalType": "address",
          "name": "_voteToken",
          "type": "address"
        },
        {
          "internalType": "uint256",
          "name": "_targetBlock",
          "type": "uint256"
        }
      ],
      "stateMutability": "nonpayable",
      "type": "constructor"
    },
    {
      "inputs": [
        {
          "internalType": "uint256",
          "name": "_targetBlock",
          "type": "uint256"
        }
      ],
      "name": "changeTargetBlock",
      "outputs": [],
      "stateMutability": "nonpayable",
      "type": "function"
    },
    {
      "inputs": [],
      "name": "getProposals",
      "outputs": [
        {
          "components": [
            {
              "internalType": "bytes32",
              "name": "name",
              "type": "bytes32"
            },
            {
              "internalType": "uint256",
              "name": "voteCount",
              "type": "uint256"
            }
          ],
          "internalType": "struct Ballot.Proposal[]",
          "name": "",
          "type": "tuple[]"
        }
      ],
      "stateMutability": "view",
      "type": "function"
    },
    {
      "inputs": [],
      "name": "owner",
      "outputs": [
        {
          "internalType": "address",
          "name": "",
          "type": "address"
        }
      ],
      "stateMutability": "view",
      "type": "function"
    },
    {
      "inputs": [
        {
          "internalType": "uint256",
          "name": "",
          "type": "uint256"
        }
      ],
      "name": "proposals",
      "outputs": [
        {
          "internalType": "bytes32",
          "name": "name",
          "type": "bytes32"
        },
        {
          "internalType": "uint256",
          "name": "voteCount",
          "type": "uint256"
        }
      ],
      "stateMutability": "view",
      "type": "function"
    },
    {
      "inputs": [],
      "name": "targetBlock",
      "outputs": [
        {
          "internalType": "uint256",
          "name": "",
          "type": "uint256"
        }
      ],
      "stateMutability": "view",
      "type": "function"
    },
    {
      "inputs": [
        {
          "internalType": "uint256",
          "name": "proposal",
          "type": "uint256"
        },
        {
          "internalType": "uint256",
          "name": "amount",
          "type": "uint256"
        }
      ],
      "name": "vote",
      "outputs": [],
      "stateMutability": "nonpayable",
      "type": "function"
    },
    {
      "inputs": [
        {
          "internalType": "address",
          "name": "account",
          "type": "address"
        }
      ],
      "name": "votePower",
      "outputs": [
        {
          "internalType": "uint256",
          "name": "",
          "type": "uint256"
        }
      ],
      "stateMutability": "view",
      "type": "function"
    },
    {
      "inputs": [
        {
          "internalType": "address",
          "name": "",
          "type": "address"
        }
      ],
      "name": "votePowerSpent",
      "outputs": [
        {
          "internalType": "uint256",
          "name": "",
          "type": "uint256"
        }
      ],
      "stateMutability": "view",
      "type": "function"
    },
    {
      "inputs": [],
      "name": "voteToken",
      "outputs": [
        {
          "internalType": "contract MyToken",
          "name": "",
          "type": "address"
        }
      ],
      "stateMutability": "view",
      "type": "function"
    },
    {
      "inputs": [],
      "name": "winnerName",
      "outputs": [
        {
          "internalType": "bytes32",
          "name": "winnerName_",
          "type": "bytes32"
        }
      ],
      "stateMutability": "view",
      "type": "function"
    },
    {
      "inputs": [],
      "name": "winningProposal",
      "outputs": [
        {
          "internalType": "uint256",
          "name": "winningProposal_",
          "type": "uint256"
        }
      ],
      "stateMutability": "view",
      "type": "function"
    }
  ],
  "bytecode": "0x60806040523480156200001157600080fd5b5060405162001196380380620011968339818101604052810190620000379190620003c4565b33600160006101000a81548173ffffffffffffffffffffffffffffffffffffffff021916908373ffffffffffffffffffffffffffffffffffffffff160217905550816000806101000a81548173ffffffffffffffffffffffffffffffffffffffff021916908373ffffffffffffffffffffffffffffffffffffffff1602179055508060028190555060005b8351811015620001565760046040518060400160405280868481518110620000ef57620000ee6200043f565b5b60200260200101518152602001600081525090806001815401808255809150506001900390600052602060002090600202016000909190919091506000820151816000015560208201518160010155505080806200014d906200049d565b915050620000c2565b50505050620004ea565b6000604051905090565b600080fd5b600080fd5b600080fd5b6000601f19601f8301169050919050565b7f4e487b7100000000000000000000000000000000000000000000000000000000600052604160045260246000fd5b620001c48262000179565b810181811067ffffffffffffffff82111715620001e657620001e56200018a565b5b80604052505050565b6000620001fb62000160565b9050620002098282620001b9565b919050565b600067ffffffffffffffff8211156200022c576200022b6200018a565b5b602082029050602081019050919050565b600080fd5b6000819050919050565b620002578162000242565b81146200026357600080fd5b50565b60008151905062000277816200024c565b92915050565b6000620002946200028e846200020e565b620001ef565b90508083825260208201905060208402830185811115620002ba57620002b96200023d565b5b835b81811015620002e75780620002d2888262000266565b845260208401935050602081019050620002bc565b5050509392505050565b600082601f83011262000309576200030862000174565b5b81516200031b8482602086016200027d565b91505092915050565b600073ffffffffffffffffffffffffffffffffffffffff82169050919050565b6000620003518262000324565b9050919050565b620003638162000344565b81146200036f57600080fd5b50565b600081519050620003838162000358565b92915050565b6000819050919050565b6200039e8162000389565b8114620003aa57600080fd5b50565b600081519050620003be8162000393565b92915050565b600080600060608486031215620003e057620003df6200016a565b5b600084015167ffffffffffffffff8111156200040157620004006200016f565b5b6200040f86828701620002f1565b9350506020620004228682870162000372565b92505060406200043586828701620003ad565b9150509250925092565b7f4e487b7100000000000000000000000000000000000000000000000000000000600052603260045260246000fd5b7f4e487b7100000000000000000000000000000000000000000000000000000000600052601160045260246000fd5b6000620004aa8262000389565b91507fffffffffffffffffffffffffffffffffffffffffffffffffffffffffffffffff8203620004df57620004de6200046e565b5b600182019050919050565b610c9c80620004fa6000396000f3fe608060405234801561001057600080fd5b50600436106100a95760003560e01c806362564c481161007157806362564c48146101555780638da5cb5b146101735780639e90d0d914610191578063b384abef146101c1578063e2ba53f0146101dd578063e490e699146101fb576100a9565b8063013cf08b146100ae5780630a16697a146100df5780630d4f9863146100fd578063160d66ae14610119578063609ff1bd14610137575b600080fd5b6100c860048036038101906100c3919061069d565b61022b565b6040516100d69291906106f2565b60405180910390f35b6100e761025f565b6040516100f4919061071b565b60405180910390f35b6101176004803603810190610112919061069d565b610265565b005b6101216102ff565b60405161012e91906107b5565b60405180910390f35b61013f610323565b60405161014c919061071b565b60405180910390f35b61015d6103ab565b60405161016a91906108cc565b60405180910390f35b61017b61041e565b604051610188919061090f565b60405180910390f35b6101ab60048036038101906101a69190610956565b610444565b6040516101b8919061071b565b60405180910390f35b6101db60048036038101906101d69190610983565b61045c565b005b6101e561053d565b6040516101f291906109c3565b60405180910390f35b61021560048036038101906102109190610956565b610571565b604051610222919061071b565b60405180910390f35b6004818154811061023b57600080fd5b90600052602060002090600202016000915090508060000154908060010154905082565b60025481565b600160009054906101000a900473ffffffffffffffffffffffffffffffffffffffff1673ffffffffffffffffffffffffffffffffffffffff163373ffffffffffffffffffffffffffffffffffffffff16146102f5576040517f08c379a00000000000000000000000000000000000000000000000000000000081526004016102ec90610a61565b60405180910390fd5b8060028190555050565b60008054906101000a900473ffffffffffffffffffffffffffffffffffffffff1681565b6000806000905060005b6004805490508110156103a657816004828154811061034f5761034e610a81565b5b9060005260206000209060020201600101541115610393576004818154811061037b5761037a610a81565b5b90600052602060002090600202016001015491508092505b808061039e90610adf565b91505061032d565b505090565b60606004805480602002602001604051908101604052809291908181526020016000905b82821015610415578382906000526020600020906002020160405180604001604052908160008201548152602001600182015481525050815260200190600101906103cf565b50505050905090565b600160009054906101000a900473ffffffffffffffffffffffffffffffffffffffff1681565b60036020528060005260406000206000915090505481565b8061046633610571565b10156104a7576040517f08c379a000000000000000000000000000000000000000000000000000000000815260040161049e90610b73565b60405180910390fd5b80600483815481106104bc576104bb610a81565b5b906000526020600020906002020160010160008282546104dc9190610b93565b9250508190555080600360003373ffffffffffffffffffffffffffffffffffffffff1673ffffffffffffffffffffffffffffffffffffffff16815260200190815260200160002060008282546105329190610b93565b925050819055505050565b60006004610549610323565b8154811061055a57610559610a81565b5b906000526020600020906002020160000154905090565b6000600360008373ffffffffffffffffffffffffffffffffffffffff1673ffffffffffffffffffffffffffffffffffffffff1681526020019081526020016000205460008054906101000a900473ffffffffffffffffffffffffffffffffffffffff1673ffffffffffffffffffffffffffffffffffffffff16633a46b1a8846002546040518363ffffffff1660e01b8152600401610610929190610bc7565b602060405180830381865afa15801561062d573d6000803e3d6000fd5b505050506040513d601f19601f820116820180604052508101906106519190610c05565b61065b9190610c32565b9050919050565b600080fd5b6000819050919050565b61067a81610667565b811461068557600080fd5b50565b60008135905061069781610671565b92915050565b6000602082840312156106b3576106b2610662565b5b60006106c184828501610688565b91505092915050565b6000819050919050565b6106dd816106ca565b82525050565b6106ec81610667565b82525050565b600060408201905061070760008301856106d4565b61071460208301846106e3565b9392505050565b600060208201905061073060008301846106e3565b92915050565b600073ffffffffffffffffffffffffffffffffffffffff82169050919050565b6000819050919050565b600061077b61077661077184610736565b610756565b610736565b9050919050565b600061078d82610760565b9050919050565b600061079f82610782565b9050919050565b6107af81610794565b82525050565b60006020820190506107ca60008301846107a6565b92915050565b600081519050919050565b600082825260208201905092915050565b6000819050602082019050919050565b610805816106ca565b82525050565b61081481610667565b82525050565b60408201600082015161083060008501826107fc565b506020820151610843602085018261080b565b50505050565b6000610855838361081a565b60408301905092915050565b6000602082019050919050565b6000610879826107d0565b61088381856107db565b935061088e836107ec565b8060005b838110156108bf5781516108a68882610849565b97506108b183610861565b925050600181019050610892565b5085935050505092915050565b600060208201905081810360008301526108e6818461086e565b905092915050565b60006108f982610736565b9050919050565b610909816108ee565b82525050565b60006020820190506109246000830184610900565b92915050565b610933816108ee565b811461093e57600080fd5b50565b6000813590506109508161092a565b92915050565b60006020828403121561096c5761096b610662565b5b600061097a84828501610941565b91505092915050565b6000806040838503121561099a57610999610662565b5b60006109a885828601610688565b92505060206109b985828601610688565b9150509250929050565b60006020820190506109d860008301846106d4565b92915050565b600082825260208201905092915050565b7f4f6e6c79206f776e65722063616e206368616e6765207468652074617267657460008201527f426c6f636b000000000000000000000000000000000000000000000000000000602082015250565b6000610a4b6025836109de565b9150610a56826109ef565b604082019050919050565b60006020820190508181036000830152610a7a81610a3e565b9050919050565b7f4e487b7100000000000000000000000000000000000000000000000000000000600052603260045260246000fd5b7f4e487b7100000000000000000000000000000000000000000000000000000000600052601160045260246000fd5b6000610aea82610667565b91507fffffffffffffffffffffffffffffffffffffffffffffffffffffffffffffffff8203610b1c57610b1b610ab0565b5b600182019050919050565b7f4e6f7420656e6f75676820766f746520706f7765720000000000000000000000600082015250565b6000610b5d6015836109de565b9150610b6882610b27565b602082019050919050565b60006020820190508181036000830152610b8c81610b50565b9050919050565b6000610b9e82610667565b9150610ba983610667565b9250828201905080821115610bc157610bc0610ab0565b5b92915050565b6000604082019050610bdc6000830185610900565b610be960208301846106e3565b9392505050565b600081519050610bff81610671565b92915050565b600060208284031215610c1b57610c1a610662565b5b6000610c2984828501610bf0565b91505092915050565b6000610c3d82610667565b9150610c4883610667565b9250828203905081811115610c6057610c5f610ab0565b5b9291505056fea264697066735822122002fdb600eb8d2d5d32b58b109aa7877541055238a33958832e6630a4d61207dd64736f6c63430008110033",
  "linkReferences": {},
  "deployedLinkReferences": {}
}